{
  "_format": "hh-sol-artifact-1",
  "contractName": "EvidenceRegistry",
  "sourceName": "contracts/EvidenceRegistry.sol",
  "abi": [
    {
      "anonymous": false,
      "inputs": [
        {
          "indexed": true,
          "internalType": "bytes32",
          "name": "nodeId",
          "type": "bytes32"
        },
        {
          "indexed": true,
          "internalType": "bytes32",
          "name": "parentId",
          "type": "bytes32"
        },
        {
          "indexed": false,
          "internalType": "string",
          "name": "action",
          "type": "string"
        },
        {
          "indexed": false,
          "internalType": "address",
          "name": "holder",
          "type": "address"
        }
      ],
      "name": "CustodyEventAdded",
      "type": "event"
    },
    {
      "anonymous": false,
      "inputs": [
        {
          "indexed": true,
          "internalType": "string",
          "name": "fileHash",
          "type": "string"
        },
        {
          "indexed": true,
          "internalType": "address",
          "name": "uploader",
          "type": "address"
        },
        {
          "indexed": false,
          "internalType": "uint256",
          "name": "timestamp",
          "type": "uint256"
        }
      ],
      "name": "EvidenceRegistered",
      "type": "event"
    },
    {
      "inputs": [
        {
          "internalType": "bytes32",
          "name": "_parentId",
          "type": "bytes32"
        },
        {
          "internalType": "string",
          "name": "_action",
          "type": "string"
        },
        {
          "internalType": "string",
          "name": "_metadata",
          "type": "string"
        }
      ],
      "name": "addCustodyEvent",
      "outputs": [],
      "stateMutability": "nonpayable",
      "type": "function"
    },
    {
      "inputs": [
        {
          "internalType": "bytes32",
          "name": "",
          "type": "bytes32"
        }
      ],
      "name": "custodyTree",
      "outputs": [
        {
          "internalType": "bytes32",
          "name": "id",
          "type": "bytes32"
        },
        {
          "internalType": "bytes32",
          "name": "parentId",
          "type": "bytes32"
        },
        {
          "internalType": "address",
          "name": "holder",
          "type": "address"
        },
        {
          "internalType": "string",
          "name": "action",
          "type": "string"
        },
        {
          "internalType": "uint256",
          "name": "timestamp",
          "type": "uint256"
        },
        {
          "internalType": "string",
          "name": "metadata",
          "type": "string"
        }
      ],
      "stateMutability": "view",
      "type": "function"
    },
    {
      "inputs": [
        {
          "internalType": "string",
          "name": "",
          "type": "string"
        }
      ],
      "name": "evidences",
      "outputs": [
        {
          "internalType": "string",
          "name": "fileHash",
          "type": "string"
        },
        {
          "internalType": "address",
          "name": "uploader",
          "type": "address"
        },
        {
          "internalType": "uint256",
          "name": "timestamp",
          "type": "uint256"
        },
        {
          "internalType": "string",
          "name": "metadata",
          "type": "string"
        },
        {
          "internalType": "bytes32",
          "name": "rootCustodyNodeId",
          "type": "bytes32"
        }
      ],
      "stateMutability": "view",
      "type": "function"
    },
    {
      "inputs": [
        {
          "internalType": "bytes32",
          "name": "_startNodeId",
          "type": "bytes32"
        }
      ],
      "name": "getCustodyChain",
      "outputs": [
        {
          "components": [
            {
              "internalType": "bytes32",
              "name": "id",
              "type": "bytes32"
            },
            {
              "internalType": "bytes32",
              "name": "parentId",
              "type": "bytes32"
            },
            {
              "internalType": "address",
              "name": "holder",
              "type": "address"
            },
            {
              "internalType": "string",
              "name": "action",
              "type": "string"
            },
            {
              "internalType": "uint256",
              "name": "timestamp",
              "type": "uint256"
            },
            {
              "internalType": "string",
              "name": "metadata",
              "type": "string"
            }
          ],
          "internalType": "struct EvidenceRegistry.CustodyNode[]",
          "name": "",
          "type": "tuple[]"
        }
      ],
      "stateMutability": "view",
      "type": "function"
    },
    {
      "inputs": [
        {
          "internalType": "bytes32",
          "name": "_nodeId",
          "type": "bytes32"
        }
      ],
      "name": "getCustodyNode",
      "outputs": [
        {
          "components": [
            {
              "internalType": "bytes32",
              "name": "id",
              "type": "bytes32"
            },
            {
              "internalType": "bytes32",
              "name": "parentId",
              "type": "bytes32"
            },
            {
              "internalType": "address",
              "name": "holder",
              "type": "address"
            },
            {
              "internalType": "string",
              "name": "action",
              "type": "string"
            },
            {
              "internalType": "uint256",
              "name": "timestamp",
              "type": "uint256"
            },
            {
              "internalType": "string",
              "name": "metadata",
              "type": "string"
            }
          ],
          "internalType": "struct EvidenceRegistry.CustodyNode",
          "name": "",
          "type": "tuple"
        }
      ],
      "stateMutability": "view",
      "type": "function"
    },
    {
      "inputs": [
        {
          "internalType": "string",
          "name": "_fileHash",
          "type": "string"
        }
      ],
      "name": "getEvidence",
      "outputs": [
        {
          "components": [
            {
              "internalType": "string",
              "name": "fileHash",
              "type": "string"
            },
            {
              "internalType": "address",
              "name": "uploader",
              "type": "address"
            },
            {
              "internalType": "uint256",
              "name": "timestamp",
              "type": "uint256"
            },
            {
              "internalType": "string",
              "name": "metadata",
              "type": "string"
            },
            {
              "internalType": "bytes32",
              "name": "rootCustodyNodeId",
              "type": "bytes32"
            }
          ],
          "internalType": "struct EvidenceRegistry.Evidence",
          "name": "",
          "type": "tuple"
        }
      ],
      "stateMutability": "view",
      "type": "function"
    },
    {
      "inputs": [
        {
          "internalType": "string",
          "name": "_fileHash",
          "type": "string"
        },
        {
          "internalType": "string",
          "name": "_metadata",
          "type": "string"
        }
      ],
      "name": "registerEvidence",
      "outputs": [],
      "stateMutability": "nonpayable",
      "type": "function"
    }
  ],
  "bytecode": "0x608060405234801561001057600080fd5b50611f32806100206000396000f3fe608060405234801561001057600080fd5b506004361061007d5760003560e01c80638b61d7361161005b5780638b61d736146100ee578063a0c14ea014610123578063b16c6ee714610153578063e3391725146101835761007d565b8063089a0f05146100825780634dd630301461009e578063679d2c6e146100d2575b600080fd5b61009c600480360381019061009791906111d8565b6101b3565b005b6100b860048036038101906100b39190611250565b610503565b6040516100c995949392919061138b565b60405180910390f35b6100ec60048036038101906100e79190611418565b61067f565b005b610108600480360381019061010391906114a3565b61083c565b60405161011a969594939291906114d0565b60405180910390f35b61013d600480360381019061013891906114a3565b6109a8565b60405161014a9190611708565b60405180910390f35b61016d60048036038101906101689190611250565b610c59565b60405161017a91906117a7565b60405180910390f35b61019d600480360381019061019891906114a3565b610e1f565b6040516101aa9190611859565b60405180910390f35b600080836040516101c491906118b7565b908152602001604051809103902060000180546101e0906118fd565b905014610222576040517f08c379a00000000000000000000000000000000000000000000000000000000081526004016102199061197a565b60405180910390fd5b600082334260405160200161023993929190611a03565b60405160208183030381529060405280519060200120905060006040518060c001604052808381526020016000801b81526020013373ffffffffffffffffffffffffffffffffffffffff1681526020016040518060400160405280600e81526020017f494e495449414c5f55504c4f414400000000000000000000000000000000000081525081526020014281526020018481525090508060016000848152602001908152602001600020600082015181600001556020820151816001015560408201518160020160006101000a81548173ffffffffffffffffffffffffffffffffffffffff021916908373ffffffffffffffffffffffffffffffffffffffff16021790555060608201518160030190816103549190611be8565b506080820151816004015560a08201518160050190816103749190611be8565b509050506040518060a001604052808581526020013373ffffffffffffffffffffffffffffffffffffffff168152602001428152602001848152602001838152506000856040516103c591906118b7565b908152602001604051809103902060008201518160000190816103e89190611be8565b5060208201518160010160006101000a81548173ffffffffffffffffffffffffffffffffffffffff021916908373ffffffffffffffffffffffffffffffffffffffff16021790555060408201518160020155606082015181600301908161044f9190611be8565b50608082015181600401559050503373ffffffffffffffffffffffffffffffffffffffff168460405161048291906118b7565b60405180910390207f3c00b3cb980aaeb80b18bdf402652e80a4a7d5162fa3eaf9db7a19c9656aebd2426040516104b99190611cba565b60405180910390a36000801b827f8308df08f17734e210ef63c11cbb0d1579a9ba781dbc09a68d356b82606285ed336040516104f59190611d21565b60405180910390a350505050565b60008180516020810182018051848252602083016020850120818352809550505050505060009150905080600001805461053c906118fd565b80601f0160208091040260200160405190810160405280929190818152602001828054610568906118fd565b80156105b55780601f1061058a576101008083540402835291602001916105b5565b820191906000526020600020905b81548152906001019060200180831161059857829003601f168201915b5050505050908060010160009054906101000a900473ffffffffffffffffffffffffffffffffffffffff16908060020154908060030180546105f6906118fd565b80601f0160208091040260200160405190810160405280929190818152602001828054610622906118fd565b801561066f5780601f106106445761010080835404028352916020019161066f565b820191906000526020600020905b81548152906001019060200180831161065257829003601f168201915b5050505050908060040154905085565b6000801b6001600085815260200190815260200160002060000154036106da576040517f08c379a00000000000000000000000000000000000000000000000000000000081526004016106d190611d9b565b60405180910390fd5b6000833384426040516020016106f39493929190611ddc565b60405160208183030381529060405280519060200120905060006040518060c001604052808381526020018681526020013373ffffffffffffffffffffffffffffffffffffffff1681526020018581526020014281526020018481525090508060016000848152602001908152602001600020600082015181600001556020820151816001015560408201518160020160006101000a81548173ffffffffffffffffffffffffffffffffffffffff021916908373ffffffffffffffffffffffffffffffffffffffff16021790555060608201518160030190816107d69190611be8565b506080820151816004015560a08201518160050190816107f69190611be8565b5090505084827f8308df08f17734e210ef63c11cbb0d1579a9ba781dbc09a68d356b82606285ed863360405161082d929190611e26565b60405180910390a35050505050565b60016020528060005260406000206000915090508060000154908060010154908060020160009054906101000a900473ffffffffffffffffffffffffffffffffffffffff1690806003018054610891906118fd565b80601f01602080910402602001604051908101604052809291908181526020018280546108bd906118fd565b801561090a5780601f106108df5761010080835404028352916020019161090a565b820191906000526020600020905b8154815290600101906020018083116108ed57829003601f168201915b505050505090806004015490806005018054610925906118fd565b80601f0160208091040260200160405190810160405280929190818152602001828054610951906118fd565b801561099e5780601f106109735761010080835404028352916020019161099e565b820191906000526020600020905b81548152906001019060200180831161098157829003601f168201915b5050505050905086565b60606000808390505b6000801b81146109e75781806109c690611e85565b925050600160008281526020019081526020016000206001015490506109b1565b60008267ffffffffffffffff811115610a0357610a026110ad565b5b604051908082528060200260200182016040528015610a3c57816020015b610a29610fe4565b815260200190600190039081610a215790505b50905084915060005b83811015610c4d57600160008481526020019081526020016000206040518060c001604052908160008201548152602001600182015481526020016002820160009054906101000a900473ffffffffffffffffffffffffffffffffffffffff1673ffffffffffffffffffffffffffffffffffffffff1673ffffffffffffffffffffffffffffffffffffffff168152602001600382018054610ae5906118fd565b80601f0160208091040260200160405190810160405280929190818152602001828054610b11906118fd565b8015610b5e5780601f10610b3357610100808354040283529160200191610b5e565b820191906000526020600020905b815481529060010190602001808311610b4157829003601f168201915b5050505050815260200160048201548152602001600582018054610b81906118fd565b80601f0160208091040260200160405190810160405280929190818152602001828054610bad906118fd565b8015610bfa5780601f10610bcf57610100808354040283529160200191610bfa565b820191906000526020600020905b815481529060010190602001808311610bdd57829003601f168201915b505050505081525050828281518110610c1657610c15611ecd565b5b6020026020010181905250600160008481526020019081526020016000206001015492508080610c4590611e85565b915050610a45565b50809350505050919050565b610c61611036565b600082604051610c7191906118b7565b90815260200160405180910390206040518060a0016040529081600082018054610c9a906118fd565b80601f0160208091040260200160405190810160405280929190818152602001828054610cc6906118fd565b8015610d135780601f10610ce857610100808354040283529160200191610d13565b820191906000526020600020905b815481529060010190602001808311610cf657829003601f168201915b505050505081526020016001820160009054906101000a900473ffffffffffffffffffffffffffffffffffffffff1673ffffffffffffffffffffffffffffffffffffffff1673ffffffffffffffffffffffffffffffffffffffff16815260200160028201548152602001600382018054610d8c906118fd565b80601f0160208091040260200160405190810160405280929190818152602001828054610db8906118fd565b8015610e055780601f10610dda57610100808354040283529160200191610e05565b820191906000526020600020905b815481529060010190602001808311610de857829003601f168201915b505050505081526020016004820154815250509050919050565b610e27610fe4565b600160008381526020019081526020016000206040518060c001604052908160008201548152602001600182015481526020016002820160009054906101000a900473ffffffffffffffffffffffffffffffffffffffff1673ffffffffffffffffffffffffffffffffffffffff1673ffffffffffffffffffffffffffffffffffffffff168152602001600382018054610ebf906118fd565b80601f0160208091040260200160405190810160405280929190818152602001828054610eeb906118fd565b8015610f385780601f10610f0d57610100808354040283529160200191610f38565b820191906000526020600020905b815481529060010190602001808311610f1b57829003601f168201915b5050505050815260200160048201548152602001600582018054610f5b906118fd565b80601f0160208091040260200160405190810160405280929190818152602001828054610f87906118fd565b8015610fd45780601f10610fa957610100808354040283529160200191610fd4565b820191906000526020600020905b815481529060010190602001808311610fb757829003601f168201915b5050505050815250509050919050565b6040518060c001604052806000801916815260200160008019168152602001600073ffffffffffffffffffffffffffffffffffffffff1681526020016060815260200160008152602001606081525090565b6040518060a0016040528060608152602001600073ffffffffffffffffffffffffffffffffffffffff1681526020016000815260200160608152602001600080191681525090565b6000604051905090565b600080fd5b600080fd5b600080fd5b600080fd5b6000601f19601f8301169050919050565b7f4e487b7100000000000000000000000000000000000000000000000000000000600052604160045260246000fd5b6110e58261109c565b810181811067ffffffffffffffff82111715611104576111036110ad565b5b80604052505050565b600061111761107e565b905061112382826110dc565b919050565b600067ffffffffffffffff821115611143576111426110ad565b5b61114c8261109c565b9050602081019050919050565b82818337600083830152505050565b600061117b61117684611128565b61110d565b90508281526020810184848401111561119757611196611097565b5b6111a2848285611159565b509392505050565b600082601f8301126111bf576111be611092565b5b81356111cf848260208601611168565b91505092915050565b600080604083850312156111ef576111ee611088565b5b600083013567ffffffffffffffff81111561120d5761120c61108d565b5b611219858286016111aa565b925050602083013567ffffffffffffffff81111561123a5761123961108d565b5b611246858286016111aa565b9150509250929050565b60006020828403121561126657611265611088565b5b600082013567ffffffffffffffff8111156112845761128361108d565b5b611290848285016111aa565b91505092915050565b600081519050919050565b600082825260208201905092915050565b60005b838110156112d35780820151818401526020810190506112b8565b60008484015250505050565b60006112ea82611299565b6112f481856112a4565b93506113048185602086016112b5565b61130d8161109c565b840191505092915050565b600073ffffffffffffffffffffffffffffffffffffffff82169050919050565b600061134382611318565b9050919050565b61135381611338565b82525050565b6000819050919050565b61136c81611359565b82525050565b6000819050919050565b61138581611372565b82525050565b600060a08201905081810360008301526113a581886112df565b90506113b4602083018761134a565b6113c16040830186611363565b81810360608301526113d381856112df565b90506113e2608083018461137c565b9695505050505050565b6113f581611372565b811461140057600080fd5b50565b600081359050611412816113ec565b92915050565b60008060006060848603121561143157611430611088565b5b600061143f86828701611403565b935050602084013567ffffffffffffffff8111156114605761145f61108d565b5b61146c868287016111aa565b925050604084013567ffffffffffffffff81111561148d5761148c61108d565b5b611499868287016111aa565b9150509250925092565b6000602082840312156114b9576114b8611088565b5b60006114c784828501611403565b91505092915050565b600060c0820190506114e5600083018961137c565b6114f2602083018861137c565b6114ff604083018761134a565b818103606083015261151181866112df565b90506115206080830185611363565b81810360a083015261153281846112df565b9050979650505050505050565b600081519050919050565b600082825260208201905092915050565b6000819050602082019050919050565b61157481611372565b82525050565b61158381611338565b82525050565b600082825260208201905092915050565b60006115a582611299565b6115af8185611589565b93506115bf8185602086016112b5565b6115c88161109c565b840191505092915050565b6115dc81611359565b82525050565b600060c0830160008301516115fa600086018261156b565b50602083015161160d602086018261156b565b506040830151611620604086018261157a565b5060608301518482036060860152611638828261159a565b915050608083015161164d60808601826115d3565b5060a083015184820360a0860152611665828261159a565b9150508091505092915050565b600061167e83836115e2565b905092915050565b6000602082019050919050565b600061169e8261153f565b6116a8818561154a565b9350836020820285016116ba8561155b565b8060005b858110156116f657848403895281516116d78582611672565b94506116e283611686565b925060208a019950506001810190506116be565b50829750879550505050505092915050565b600060208201905081810360008301526117228184611693565b905092915050565b600060a0830160008301518482036000860152611747828261159a565b915050602083015161175c602086018261157a565b50604083015161176f60408601826115d3565b5060608301518482036060860152611787828261159a565b915050608083015161179c608086018261156b565b508091505092915050565b600060208201905081810360008301526117c1818461172a565b905092915050565b600060c0830160008301516117e1600086018261156b565b5060208301516117f4602086018261156b565b506040830151611807604086018261157a565b506060830151848203606086015261181f828261159a565b915050608083015161183460808601826115d3565b5060a083015184820360a086015261184c828261159a565b9150508091505092915050565b6000602082019050818103600083015261187381846117c9565b905092915050565b600081905092915050565b600061189182611299565b61189b818561187b565b93506118ab8185602086016112b5565b80840191505092915050565b60006118c38284611886565b915081905092915050565b7f4e487b7100000000000000000000000000000000000000000000000000000000600052602260045260246000fd5b6000600282049050600182168061191557607f821691505b602082108103611928576119276118ce565b5b50919050565b7f45766964656e636520616c726561647920726567697374657265640000000000600082015250565b6000611964601b836112a4565b915061196f8261192e565b602082019050919050565b6000602082019050818103600083015261199381611957565b9050919050565b60008160601b9050919050565b60006119b28261199a565b9050919050565b60006119c4826119a7565b9050919050565b6119dc6119d782611338565b6119b9565b82525050565b6000819050919050565b6119fd6119f882611359565b6119e2565b82525050565b6000611a0f8286611886565b9150611a1b82856119cb565b601482019150611a2b82846119ec565b602082019150819050949350505050565b60008190508160005260206000209050919050565b60006020601f8301049050919050565b600082821b905092915050565b600060088302611a9e7fffffffffffffffffffffffffffffffffffffffffffffffffffffffffffffffff82611a61565b611aa88683611a61565b95508019841693508086168417925050509392505050565b6000819050919050565b6000611ae5611ae0611adb84611359565b611ac0565b611359565b9050919050565b6000819050919050565b611aff83611aca565b611b13611b0b82611aec565b848454611a6e565b825550505050565b600090565b611b28611b1b565b611b33818484611af6565b505050565b5b81811015611b5757611b4c600082611b20565b600181019050611b39565b5050565b601f821115611b9c57611b6d81611a3c565b611b7684611a51565b81016020851015611b85578190505b611b99611b9185611a51565b830182611b38565b50505b505050565b600082821c905092915050565b6000611bbf60001984600802611ba1565b1980831691505092915050565b6000611bd88383611bae565b9150826002028217905092915050565b611bf182611299565b67ffffffffffffffff811115611c0a57611c096110ad565b5b611c1482546118fd565b611c1f828285611b5b565b600060209050601f831160018114611c525760008415611c40578287015190505b611c4a8582611bcc565b865550611cb2565b601f198416611c6086611a3c565b60005b82811015611c8857848901518255600182019150602085019450602081019050611c63565b86831015611ca55784890151611ca1601f891682611bae565b8355505b6001600288020188555050505b505050505050565b6000602082019050611ccf6000830184611363565b92915050565b7f494e495449414c5f55504c4f4144000000000000000000000000000000000000600082015250565b6000611d0b600e836112a4565b9150611d1682611cd5565b602082019050919050565b60006040820190508181036000830152611d3a81611cfe565b9050611d49602083018461134a565b92915050565b7f506172656e74206e6f646520646f6573206e6f74206578697374000000000000600082015250565b6000611d85601a836112a4565b9150611d9082611d4f565b602082019050919050565b60006020820190508181036000830152611db481611d78565b9050919050565b6000819050919050565b611dd6611dd182611372565b611dbb565b82525050565b6000611de88287611dc5565b602082019150611df882866119cb565b601482019150611e088285611886565b9150611e1482846119ec565b60208201915081905095945050505050565b60006040820190508181036000830152611e4081856112df565b9050611e4f602083018461134a565b9392505050565b7f4e487b7100000000000000000000000000000000000000000000000000000000600052601160045260246000fd5b6000611e9082611359565b91507fffffffffffffffffffffffffffffffffffffffffffffffffffffffffffffffff8203611ec257611ec1611e56565b5b600182019050919050565b7f4e487b7100000000000000000000000000000000000000000000000000000000600052603260045260246000fdfea2646970667358221220c7b0244d551f6ba775bc622463f5c737f73612a6acb9e322380c4b8c46c99aa864736f6c63430008130033",
  "linkReferences": {},
  "deployedLinkReferences": {}
}